:100000000C944A010C947B010C947B010C947B01B1
:100010000C947B010C947B010C947B010C947B0170
:100020000C947B010C947B010C947B010C947B0160
:100030000C947B010C947B010C947B010C947B0150
:100040000C947B010C947B010C947B010C947B0140
:100050000C947B010C947B010C947B010C9418068E
:100060000C947B010C948C060C9462060C947B011E
:100070000C947B010C947B010C947B010C947B0110
:100080000C947B010C947B010C947B010C947B0100
:100090000C947B010C947B010C947B010C947B01F0
:1000A0000C947B010C947B010C947B010C947B01E0
:1000B0000C947B010C947B010C947B010C947B01D0
:1000C0000C947B010C947B010C947B010C947B01C0
:1000D0000C947B010C947B010C947B010C947B01B0
:1000E0000C947B01F501F801E701EB01EF012F0210
:1000F000FC01000206020A020E02140218021C028F
:100100002F02220226022A020C94FC010C941C02EB
:100110000C94A2020C94E7010C94CD020C942A02D8
:100120000C949C010C940A020C94EF010C94220292
:100130000C940C040C94C2060C94EA030C94F50184
:100140000C9414020C9418020C942F020C942602A6
:100150000C949F040C94FF020C940E020C94060263
:100160000C94E5020C94A3030C94EB010C94D102C3
:100170000C94F8010C94F3020C948D040C9400027E
:1001800000000A0B02090C0D0E0807030401000011
:10019000000000000000000000000000000000005F
:1001A000000000000000000000000000121110001C
:1001B000000000000000000000000000000000003F
:1001C00000000000000000002200250028002B0095
:1001D0002E003100340002010000050108010B016E
:1001E00000002100240027002A002D0030003300E9
:1001F00001010000040107010A01050505050705C5
:1002000008080808020202020A0A08080404040492
:1002100001010101010101010303030303030303BE
:10022000040707070C0C0C0C0C0C0C0C020202024D
:1002300006060606060606060B0B0B0B0B0B0B0B36
:1002400001021020200808102040102040800201E8
:1002500002010804020101020408102040808040CD
:1002600020100804020180040201804020100804CC
:10027000020108040201010204081020408001026A
:100280000408102040806364696E6F70737578583D
:100290005B00C20611241FBECFEFD1E2DEBFCDBF8F
:1002A00000E00CBF12E0A0E0B2E0ECE6FCE100E010
:1002B0000BBF02C007900D92AA33B107D9F72DE703
:1002C000AAE3B2E001C01D92A231B207E1F711E04A
:1002D000CAE4D1E000E006C021970109802FFE01A9
:1002E0000E94C707C934D10780E00807A9F70E9418
:1002F00045070C94340E0C94000090E0FC01E05C87
:10030000FD4F2491FC01E650FE4F8491882399F023
:1003100090E0880F991FFC01E052FE4FA591B49127
:10032000FC01EA53FE4F859194918FB7F894EC91BC
:10033000E22BEC938FBF0895E6E4F2E0A089B18947
:1003400082E08C93A485B5851C92A685B7858FEC39
:100350008C93108EA489B58986E08C93A289B38989
:100360008C9180618C93A289B3898C9188608C93E5
:10037000A289B3898C9180688C930288F389E02DDF
:1003800080818F7D808380E090E00895362F90E01B
:10039000FC01E058FE4F4491FC01E05CFD4F2491CC
:1003A000FC01E650FE4F9491992309F46BC044235D
:1003B00009F455C050E0FA013197E231F10508F037
:1003C0004EC08827EE58FF4F8F4F0C94C70780917F
:1003D00080008F7707C0809180008F7D03C080915F
:1003E0008000877F809380003AC084B58F7702C0F9
:1003F00084B58F7D84BD33C08091B0008F7703C0FA
:100400008091B0008F7D8093B00029C080919000D2
:100410008F7707C0809190008F7D03C080919000FE
:10042000877F809390001BC08091A0008F7707C0CA
:100430008091A0008F7D03C08091A000877F809372
:10044000A0000DC0809120018F7707C0809120010E
:100450008F7D03C080912001877F80932001E92F49
:10046000F0E0EE0FFF1FEA53FE4FA591B4918FB756
:10047000F894EC91311103C020952E2301C02E2B4E
:100480002C938FBF08953FB7F89480913E029091CE
:100490003F02A0914002B091410226B5A89B05C041
:1004A0002F3F19F00196A11DB11D3FBFBA2FA92FF3
:1004B000982F8827820F911DA11DB11DBC01CD0170
:1004C00042E0660F771F881F991F4A95D1F708955C
:1004D0008F929F92AF92BF92CF92DF92EF92FF9254
:1004E0006B017C010E9443024B015C01C114D104E9
:1004F000E104F104F1F00E944302DC01CB01881910
:100500009909AA09BB09883E9340A105B10570F37A
:1005100021E0C21AD108E108F10888EE880E83E0D4
:10052000981EA11CB11CC114D104E104F10419F7F7
:10053000DDCFFF90EF90DF90CF90BF90AF909F9076
:100540008F900895CF92DF92EF92FF920F931F93B7
:10055000CF93DF936C017A018B01C0E0D0E0CE1520
:10056000DF0589F0D8016D918D01D601ED91FC91E7
:100570000190F081E02DC6011995892B11F47E01BF
:1005800002C02196ECCFC701DF91CF911F910F914F
:10059000FF90EF90DF90CF90089586E492E00C9466
:1005A000A202FC01918D828D981761F0828DDF018E
:1005B000A80FB11D5D968C91928D9F5F9F73928F56
:1005C00090E008958FEF9FEF0895FC01918D828D4B
:1005D000981731F0828DE80FF11D858D90E0089518
:1005E0008FEF9FEF0895FC01918D228D892F90E070
:1005F000805C9F4F821B91098F7399270895CF923A
:10060000DF92EF92FF920F931F93CF93DF931F928E
:100610001F92CDB7DEB77A0186E492E069837A83D0
:100620000E94F30269817A81181619060CF053C0F2
:100630008B01C12CD12CCE14DF0408F043C02FB79E
:10064000F8948091420290914302A0914402B091AB
:1006500045022FBF80934E0290934F02A093500209
:10066000B0935102E0914602F09147020680F78173
:10067000E02D86E492E0199597FF26C02FB7F894F5
:100680008091420290914302A0914402B0914502B0
:100690002FBF40914E0250914F02609150027091D5
:1006A0005102841B950BA60BB70B40914A02509147
:1006B0004B0260914C0270914D0284179507A6077A
:1006C000B70780F2C60109C0F80181938F01FFEFDF
:1006D000CF1ADF0AB0CF80E090E00F900F90DF914B
:1006E000CF911F910F91FF90EF90DF90CF900895E1
:1006F00086E492E00E94F30221E0892B09F420E0D5
:10070000822F0895FC01848DDF01A80FB11DA35A2B
:10071000BF4F2C91848D90E001968F739927848F21
:10072000A689B7892C93A089B1898C9180648C9318
:10073000938D848D981306C00288F389E02D808103
:100740008F7D80830895EF92FF920F931F93CF9335
:10075000DF93EC0181E0888F9B8D8C8D981305C011
:10076000E889F989808185FD24C0F62E0B8D10E083
:100770000F5F1F4F0F731127E02E8C8DE8120CC0F6
:100780000FB607FCFACFE889F989808185FFF5CF9C
:10079000CE010E948203F1CF8B8DFE01E80FF11D87
:1007A000E35AFF4FF0820B8FEA89FB8980818062D8
:1007B00007C0EE89FF896083E889F98980818064B8
:1007C000808381E090E0DF91CF911F910F91FF90A6
:1007D000EF900895CF93DF93EC01888D8823C9F0C3
:1007E000EA89FB89808185FD05C0A889B9898C913A
:1007F00086FD0FC00FB607FCF5CF808185FFF2CFD5
:10080000A889B9898C9185FFEDCFCE010E94820322
:10081000E7CFDF91CF91089586E492E00E94EA034A
:10082000E6E4F2E0A289B3898C918F7E8C93A28951
:10083000B3898C91877F8C93A289B3898C918F77B0
:100840008C93A289B3898C918F7D8C93828D818FBB
:10085000089580E090E0892B21F00E9478038111B7
:1008600025C080E090E0892B41F080E090E0892B6A
:1008700021F00E94000081111CC080E090E0892BD3
:1008800041F080E090E0892B21F00E94000081116E
:1008900013C080E090E0892BA1F080E090E0892BEC
:1008A00081F00E94000081110AC008950E9400009A
:1008B000D8CF0E940000E1CF0E940000EACF0C9444
:1008C00000000895863308F0865390917B00282F0E
:1008D0002870977F922B90937B0087702091000265
:1008E00090E4299F90011124822B80937C008091B9
:1008F0007A00806480937A0080917A0086FDFCCF34
:10090000809178002091790090E0922B90933B02A7
:1009100080933A0208950E94CF07DC0112962AE0E4
:10092000FB0101900D922A95E1F7DC011C96FB0179
:100930003A968AE001900D928A95E1F70895FC01BC
:1009400032962AE0DB0101900D922A95E1F7DB0156
:100950001A96FC013C968AE001900D928A95E1F787
:1009600084E190E00895AF92BF92CF92DF92EF9230
:10097000FF920F931F93CF93DF93CDB7DEB7C35C86
:10098000D2400FB6F894DEBF0FBECDBF8DE192E02E
:10099000C654DD4F99838883CA5BD24080E098E0DB
:1009A000C454DD4F99838883CC5BD240C254DD4F61
:1009B00019821882CE5BD24080E895E2C054DD4FA8
:1009C00099838883C05CD24086E090E0CE53DD4FAF
:1009D00099838883C25CD24040E052E06FE570E0CA
:1009E000CE0101960E94DD07CE018C559D4F25E07A
:1009F00032E0FC0121933193CF0165E272E00E9465
:100A0000E4076BE272E084EA92E08C0F9D1F0C9683
:100A10000E94E407BE01655F7D4FCE018C559D4F5E
:100A20000E949F045C016C01092E000CEE08FF0877
:100A30008E0105571D4FF1EFCF16F1E0DF06E104FF
:100A4000F1040CF066C0AC01405F5F4F60E270E003
:100A5000CE0101960E94DD07D701C6014296A11D75
:100A6000B11DE1E0F0E0EC0FFD1FE80FF91F10826F
:100A700085E38C83A501BE01655F7D4FCE01419664
:100A80000E94D40782E0898380913C028A3014F06E
:100A900081E001C08F5F80933C0280913C02888797
:100AA00080E18B8381E392E3A3E3B4E38D879E87A8
:100AB000AF87B88B88E48A83FF92EF92DF92CF9260
:100AC00081E392E09F938F931F930F930E94EB0714
:100AD000F80180819181A281B38189879A87AB8750
:100AE000BC8785E38C8385E390E0A0E0B0E0CA5F3B
:100AF000DD4F88839983AA83BB83C650D240C65FEB
:100B0000DD4F1882CA50D2400FB6F894DEBF0FBE38
:100B1000CDBFF801148289859A85AB85BC85808319
:100B20009183A283B3837E01F2E0EF0EFF1EFF925A
:100B3000EF9285E392E09F938F931F930F930E9410
:100B40001B08F7014081518162817381405F5F4FD3
:100B50006F4F7F4FBE016F5F7F4FCE0186549D4F19
:100B60000E94CD0261E086E10E94C60161E08DE055
:100B70000E94C60165E070E080E090E00E9468029B
:100B800060E086E10E94C60160E08DE00E94C6013F
:100B900064EF71E080E090E00E94680286E390E0FC
:100BA0000E94620461E070E080E090E00E946802D0
:100BB00087E390E00E94620465E070E080E090E0EE
:100BC0000E94680288E390E00E94620465E070E0A1
:100BD00080E090E00E94680289E390E00E94620455
:100BE00065E070E080E090E00E9468028AE390E0B7
:100BF0000E94620465E070E080E090E00E9468027C
:100C00000F900F900F900F900F900F90CD53DD4FDE
:100C10000FB6F894DEBF0FBECDBFDF91CF911F910D
:100C20000F91FF90EF90DF90CF90BF90AF9008951D
:100C30001F920F920FB60F9211242F933F938F9311
:100C40009F93AF93BF938091420290914302A091F2
:100C50004402B091450230913D0223E0230F2D372D
:100C600020F40196A11DB11D05C026E8230F0296B0
:100C7000A11DB11D20933D02809342029093430237
:100C8000A0934402B093450280913E0290913F02AE
:100C9000A0914002B09141020196A11DB11D809327
:100CA0003E0290933F02A0934002B0934102BF9155
:100CB000AF919F918F913F912F910F900FBE0F9009
:100CC0001F9018951F920F920FB60F9211240BB61A
:100CD0000F922F933F934F935F936F937F938F93D5
:100CE0009F93AF93BF93EF93FF9386E492E00E94AC
:100CF0008203FF91EF91BF91AF919F918F917F916F
:100D00006F915F914F913F912F910F900BBE0F907C
:100D10000FBE0F901F9018951F920F920FB60F9253
:100D200011240BB60F922F938F939F93EF93FF9302
:100D3000E0915602F09157028081E0915C02F091BF
:100D40005D0282FD12C0908180915F028F5F8F7380
:100D500020916002821751F0E0915F02F0E0EA5BBF
:100D6000FD4F958F80935F0201C08081FF91EF91CD
:100D70009F918F912F910F900BBE0F900FBE0F90F0
:100D80001F901895E6E4F2E01382128288EE93E059
:100D9000A0E0B0E084839583A683B7838DE092E0E2
:100DA0009183808385EC90E09587848784EC90E044
:100DB0009787868780EC90E0918B808B81EC90E028
:100DC000938B828B82EC90E0958B848B86EC90E009
:100DD000978B868B118E128E138E148E10920D7D32
:100DE00010920C7D10920F7D10920E7D1092117D4D
:100DF0001092107D10920B7D10920A7DE9EEFCE7B7
:100E00001082F093FE7CE093FD7C88EE93E090935B
:100E1000007D8093FF7C1092027D1092017D1092E4
:100E2000047D1092037D1092057D1092077D109233
:100E3000067DECE7FCE78DE192E09183808380E022
:100E400098E0938382831582148280E895E29783E9
:100E5000868386E090E091878087E3EEF2E08FEF73
:100E60009FEF9093797C8093787C90937B7C8093A8
:100E70007A7C1382128211861086938782879787E5
:100E80008687148A158614860895789484B58260BE
:100E900084BD84B5816084BD85B5826085BD85B51E
:100EA000816085BD80916E00816080936E0010929C
:100EB0008100809181008260809381008091810017
:100EC00081608093810080918000816080938000A8
:100ED0008091B10084608093B1008091B000816006
:100EE0008093B00080919100826080939100809106
:100EF0009100816080939100809190008160809347
:100F000090008091A10082608093A1008091A10057
:100F100081608093A1008091A00081608093A000F7
:100F20008091210182608093210180912101816063
:100F30008093210180912001816080932001809124
:100F40007A00846080937A0080917A008260809336
:100F50007A0080917A00816080937A0080917A0093
:100F6000806880937A001092C10081E08093000233
:100F700086E10E947D018DE00E947D018CE79CE767
:100F80000E949C010E94B3040E942904FBCFEE0F33
:100F9000FF1F881F8BBF0790F691E02D199481E009
:100FA00090E0F8940C94340EFB01DC0102C0019037
:100FB0000D9241505040D8F70895DC0101C06D9367
:100FC00041505040E0F70895FB01DC0101900D9283
:100FD0000020E1F708950F931F93CF93DF93CDB7D0
:100FE000DEB72E970FB6F894DEBF0FBECDBF0E89C9
:100FF0001F8986E08C831A8309838FEF9FE79E8386
:101000008D83AE01465E5F4F688D798DCE0101966E
:101010000E943D082F813885F801E20FF31F1082EE
:101020002E960FB6F894DEBF0FBECDBFDF91CF91E5
:101030001F910F910895CF93DF93CDB7DEB72E9711
:101040000FB6F894DEBF0FBECDBF85E08C838C89D0
:101050009D899A838983AE01485E5F4F6E897F893F
:10106000CE0101960E94EC0B2E960FB6F894DEBFCF
:101070000FBECDBFDF91CF9108952F923F924F9237
:101080005F926F927F928F929F92AF92BF92CF9218
:10109000DF92EF92FF920F931F93CF93DF93CDB721
:1010A000DEB72C970FB6F894DEBF0FBECDBF7C0124
:1010B0006B018A01FC0117821682838181FFBDC109
:1010C000CE0101964C01F7019381F60193FD8591C4
:1010D00093FF81916F01882309F4ABC1853239F404
:1010E00093FD859193FF81916F01853229F4B701BA
:1010F00090E00E94790DE7CF512C312C20E0203276
:10110000A0F48B3269F030F4803259F0833269F404
:1011100020612CC08D3239F0803339F4216026C033
:101120002260246023C0286021C027FD27C030ED45
:10113000380F3A3078F426FF06C0FAE05F9E300D93
:101140001124532E13C08AE0389E300D1124332E03
:1011500020620CC08E3221F426FD6BC1206406C0D3
:101160008C3611F4206802C0883641F4F60193FDF4
:10117000859193FF81916F018111C1CF982F9F7D40
:101180009554933028F40C5F1F4FFFE3F9830DC093
:10119000833631F0833771F0833509F05BC022C0AC
:1011A000F801808189830E5F1F4F44244394512CA2
:1011B000540115C03801F2E06F0E711CF801A080D7
:1011C000B18026FF03C0652D70E002C06FEF7FEF96
:1011D000C5012C870E94300D2C0183012C852F77AF
:1011E000222E17C03801F2E06F0E711CF801A080AA
:1011F000B18026FF03C0652D70E002C06FEF7FEF66
:10120000C5012C870E94250D2C012C852068222EDB
:10121000830123FC1BC0832D90E048165906B0F4CF
:10122000B70180E290E00E94790D3A94F4CFF50185
:1012300027FC859127FE81915F01B70190E00E9414
:10124000790D31103A94F1E04F1A510841145104CC
:1012500071F7E5C0843611F0893639F5F80127FFBA
:1012600007C060817181828193810C5F1F4F08C02C
:1012700060817181072E000C880B990B0E5F1F4F48
:101280002F76722E97FF09C0909580957095619585
:101290007F4F8F4F9F4F2068722E2AE030E0A401CD
:1012A0000E94CA0DA82EA81844C0853729F42F7EA5
:1012B000B22E2AE030E025C0F22FF97FBF2E8F3604
:1012C000C1F018F4883579F0B4C0803719F0883748
:1012D00021F0AFC02F2F2061B22EB4FE0DC08B2D98
:1012E0008460B82E09C024FF0AC09F2F9660B92ED3
:1012F00006C028E030E005C020E130E002C020E177
:1013000032E0F801B7FE07C060817181828193816C
:101310000C5F1F4F06C06081718180E090E00E5F1E
:101320001F4FA4010E94CA0DA82EA818FB2DFF77FD
:101330007F2E76FE0BC0372D3E7FA51450F474FE31
:101340000AC072FC08C0372D3E7E05C0BA2C372D6E
:1013500003C0BA2C01C0B52C34FF0DC0FE01EA0D4C
:10136000F11D8081803311F4397E09C032FF06C03F
:10137000B394B39404C0832F867809F0B39433FDFB
:1013800013C030FF06C05A2CB31418F4530C5B186A
:10139000B32CB31468F4B70180E290E03C870E945C
:1013A000790DB3943C85F5CFB31410F43B1801C00C
:1013B000312C34FF12C0B70180E390E03C870E94DB
:1013C000790D3C8532FF17C031FD03C088E790E0FE
:1013D00002C088E590E0B7010CC0832F867859F0F1
:1013E00031FF02C08BE201C080E237FD8DE2B70120
:1013F00090E00E94790DA51438F4B70180E390E0E5
:101400000E94790D5A94F7CFAA94F401EA0DF11DC8
:101410008081B70190E00E94790DA110F5CF3320B3
:1014200009F451CEB70180E290E00E94790D3A9420
:10143000F6CFF7018681978102C08FEF9FEF2C9640
:101440000FB6F894DEBF0FBECDBFDF91CF911F91D5
:101450000F91FF90EF90DF90CF90BF90AF909F9053
:101460008F907F906F905F904F903F902F90089556
:1014700020FD09C0FC0123FD05C022FF02C07383CB
:10148000628351834083089544FD10C046FD10C01F
:10149000DB01FC01AA0FBB1FEE1FFF1F1094D1F749
:1014A0006A0F7B1F8E1F9F1F31E003C033E001C016
:1014B00034E0660F771F881F991F3150D1F7620FF4
:1014C000711D811D911D08950F931F93CF93DF937D
:1014D0008C01C8010E943B0DEC0197FD08C00E94E1
:1014E000280E892BB1F7B801CE010E94B10DCE01B3
:1014F000DF91CF911F910F9108958F929F92AF929C
:10150000BF92CF92DF92EF92FF920F931F93CF93F0
:10151000DF931F92CDB7DEB78C01C62E7A012983E7
:101520000E943B0DAC01552729814B32510521F01A
:101530004D32510569F42068CA94C11002C080E0A0
:1015400076C0C80129830E943B0D298197FDF7CF02
:10155000322F3D7FD32E322F307349F5803339F54A
:10156000BB24BA94BC0C09F44EC0C80129830E9464
:101570003B0D298197FD47C0382F3F7D383569F4F1
:101580008D2D8264D82ECA94CA94CC20E1F1C80172
:101590000E943B0D97FF0BC036C026FF04C02D2DC7
:1015A0002260D22E03C03D2D3261D32ECB2C812C54
:1015B000912C540120ED280F283080F0D4FE04C077
:1015C000B8010E94B10D1CC02A3040F0D6FEF8CF01
:1015D0002F7D3FEE320F363098F727504D2DC50145
:1015E000B4010E94440A4B015C018D2D8260D82E0B
:1015F000CA94CC2059F0C8010E943B0D97FFDACF66
:10160000D1FC04C09CCF812C912C5401D7FE08C082
:10161000B094A09490948094811C911CA11CB11C46
:101620002D2DB501A401C7010E94380A81E00F9059
:10163000DF91CF911F910F91FF90EF90DF90CF90AE
:10164000BF90AF909F908F9008956F927F928F92EE
:101650009F92AF92BF92CF92DF92EF92FF920F9341
:101660001F93CF93DF93CDB7DEB7A1970FB6F89452
:10167000DEBF0FBECDBF5C017A01CE0101966C01C9
:1016800080E2F60111928A95E9F7F501838040E046
:1016900050E0912C712C70E0A1E0B0E0F90183FCE6
:1016A000859183FE81918F01982F9F01811103C045
:1016B00080E090E07CC08E3519F44115510549F168
:1016C000E72FF0E0E417F5073CF48D3559F18D3242
:1016D00019F4772001F103C0711001C0982E892FF1
:1016E0008695869586958601080F111D892F87702E
:1016F0003D0101C0660C8A95EAF7F80180818629D0
:101700008083991559F0991510F49F5FE8CF915097
:10171000E6CF71E004C07724739401C0712C4F5F51
:101720005F4FBCCF772019F08E8180628E8371115C
:1017300003C09924939416C0F6019E012F5D3F4F7C
:10174000808180958193E217F307D1F7F2CFE114FE
:10175000F10429F0F7018083C70101967C016150F3
:10176000912CF9F0C50169A30E943B0D69A197FD79
:1017700016C0282F269526952695F601E20FF11D15
:10178000208130E0AC014770552702C03595279580
:101790004A95E2F720FDDBCFB5010E94B10D911013
:1017A00087CFE114F10411F0F7011082C801A1966E
:1017B0000FB6F894DEBF0FBECDBFDF91CF911F9162
:1017C0000F91FF90EF90DF90CF90BF90AF909F90E0
:1017D0008F907F906F9008954F925F927F928F923B
:1017E0009F92AF92BF92CF92DF92EF92FF920F93B0
:1017F0001F93CF93DF931F92CDB7DEB76C012B0100
:101800005A01FC0117821682712CF601F380F20155
:10181000F3FC8591F3FE8191382F2F01882309F481
:10182000F3C090E039830E94280E3981892B21F082
:10183000C6010E94640AE9CF353241F4F201F3FC9B
:101840003591F3FE31912F01353269F4C6013983A8
:101850000E943B0D398197FDD5C03817B1F2B60112
:101860000E94B10DD1C03A3239F4F3FC3591F3FE48
:1018700031912F0151E001C050E0420110E020ED14
:10188000230F2A3090F45260612F70E080E090E0E6
:1018900040E259830E94440A162FF401F3FC35916B
:1018A000F3FE31914F015981EACF052F232F2401F7
:1018B00051FF03C0111102C0A7C01FEF383619F045
:1018C0003C3659F011C0F401F3FC2591F3FE21914F
:1018D0002F01283649F4052F08600460F201F3FC5B
:1018E0002591F3FE21912F01222309F48DC0622F4F
:1018F00070E086E892E029830E941A0D2981892BE5
:1019000009F482C000FD07C0F501E080F180C50147
:1019100002965C0102C0E12CF12C2E3651F4F60146
:101920004681578160E070E0202FC7010E94380A8D
:101930006CCF233691F401FF11E0C6010E943B0DEC
:1019400097FD60C0E114F10429F0F7018083C7011D
:1019500001967C01115089F751C02B3559F4920141
:10196000A701612FC6010E94250B2C01892B09F0CC
:1019700045C03FC0C60129830E94640A298197FDA2
:1019800041C02F3659F128F4243631F1293649F176
:1019900027C0233769F02537F9F022C0E114F1049C
:1019A00029F0F7018082C70101967C01115071F086
:1019B000C6010E943B0D4C0197FD08C00E94280EF5
:1019C000892B61F3B601C4010E94B10DE114F10449
:1019D000A9F0F701108212C0006203C0006101C0CB
:1019E0000064202FA701612FC6010E947D0A81118A
:1019F00005C0F6018381807329F406C000FD05CF80
:101A0000739403CF772019F0872D90E002C08FEFF9
:101A10009FEF0F90DF91CF911F910F91FF90EF906B
:101A2000DF90CF90BF90AF909F908F907F905F900E
:101A30004F900895FC010590061621F00020D9F77B
:101A4000C00108953197CF010895FC0105906150C0
:101A500070400110D8F7809590958E0F9F1F0895C4
:101A6000FC016150704001900110D8F7809590956D
:101A70008E0F9F1F0895CF93DF93EC012B8120FFE2
:101A800033C026FF0AC02F7B2B838E819F81019656
:101A90009F838E838A8190E029C022FF0FC0E88156
:101AA000F9818081082E000C990B009719F42062AF
:101AB0002B831AC03196F983E8830EC0EA85FB8533
:101AC000199597FF09C02B81019611F080E201C0A2
:101AD00080E1822B8B8308C02E813F812F5F3F4F97
:101AE0003F832E83992702C08FEF9FEFDF91CF9125
:101AF00008950F931F93CF93DF93FB01238121FD63
:101B000003C08FEF9FEF28C022FF16C04681578188
:101B1000248135814217530744F4A081B1819D018E
:101B20002F5F3F4F318320838C93268137812F5F36
:101B30003F4F3783268310C0EB01092F182F0084F5
:101B4000F185E02D1995892BE1F68E819F81019613
:101B50009F838E83812F902FDF91CF911F910F91C3
:101B60000895FB01238120FF12C026FD10C08F3F86
:101B70003FEF930761F082832F7D206423832681CA
:101B800037812150310937832683992708958FEFB4
:101B90009FEF0895FA01AA27283051F1203181F1F1
:101BA000E8946F936E7F6E5F7F4F8F4F9F4FAF4F65
:101BB000B1E03ED0B4E03CD0670F781F891F9A1F78
:101BC000A11D680F791F8A1F911DA11D6A0F711D2C
:101BD000811D911DA11D20D009F468943F912AE038
:101BE000269F11243019305D3193DEF6CF01089520
:101BF000462F4770405D4193B3E00FD0C9F7F6CF51
:101C0000462F4F70405D4A3318F0495D31FD405218
:101C1000419302D0A9F7EACFB4E0A69597958795AE
:101C200077956795BA95C9F700976105710508958D
:101C30009B01AC010A2E0694579547953795279539
:101C4000BA95C9F7620F731F841F951FA01D0895D1
:101C500091110C94310E803219F089508550C8F7DB
:0C1C60000895992788270895F894FFCF75
:101C6C0001000000009F048D0400000000A303A2EB
:101C7C0002F302D102E502EA03000000009C010C11
:101C8C0004FF02CD02676176616E006D7970776436
:0A1C9C00002534640025346C640058
:00000001FF
